{
  "contractName": "ERC20Handler",
  "abi": [
    {
      "inputs": [
        {
          "internalType": "address",
          "name": "bridgeAddress",
          "type": "address"
        },
        {
          "internalType": "address",
          "name": "wtokenAddress",
          "type": "address"
        },
        {
          "internalType": "bytes32[]",
          "name": "initialResourceIDs",
          "type": "bytes32[]"
        },
        {
          "internalType": "address[]",
          "name": "initialContractAddresses",
          "type": "address[]"
        },
        {
          "internalType": "address[]",
          "name": "burnableContractAddresses",
          "type": "address[]"
        }
      ],
      "stateMutability": "nonpayable",
      "type": "constructor"
    },
    {
      "inputs": [],
      "name": "_bridgeAddress",
      "outputs": [
        {
          "internalType": "address",
          "name": "",
          "type": "address"
        }
      ],
      "stateMutability": "view",
      "type": "function"
    },
    {
      "inputs": [
        {
          "internalType": "address",
          "name": "",
          "type": "address"
        }
      ],
      "name": "_burnList",
      "outputs": [
        {
          "internalType": "bool",
          "name": "",
          "type": "bool"
        }
      ],
      "stateMutability": "view",
      "type": "function"
    },
    {
      "inputs": [
        {
          "internalType": "address",
          "name": "",
          "type": "address"
        }
      ],
      "name": "_contractWhitelist",
      "outputs": [
        {
          "internalType": "bool",
          "name": "",
          "type": "bool"
        }
      ],
      "stateMutability": "view",
      "type": "function"
    },
    {
      "inputs": [
        {
          "internalType": "uint8",
          "name": "",
          "type": "uint8"
        },
        {
          "internalType": "uint64",
          "name": "",
          "type": "uint64"
        }
      ],
      "name": "_depositRecords",
      "outputs": [
        {
          "internalType": "address",
          "name": "_tokenAddress",
          "type": "address"
        },
        {
          "internalType": "uint8",
          "name": "_lenDestinationRecipientAddress",
          "type": "uint8"
        },
        {
          "internalType": "uint8",
          "name": "_destinationChainID",
          "type": "uint8"
        },
        {
          "internalType": "bytes32",
          "name": "_resourceID",
          "type": "bytes32"
        },
        {
          "internalType": "bytes",
          "name": "_destinationRecipientAddress",
          "type": "bytes"
        },
        {
          "internalType": "address",
          "name": "_depositer",
          "type": "address"
        },
        {
          "internalType": "uint256",
          "name": "_amount",
          "type": "uint256"
        }
      ],
      "stateMutability": "view",
      "type": "function"
    },
    {
      "inputs": [
        {
          "internalType": "bytes32",
          "name": "",
          "type": "bytes32"
        }
      ],
      "name": "_resourceIDToTokenContractAddress",
      "outputs": [
        {
          "internalType": "address",
          "name": "",
          "type": "address"
        }
      ],
      "stateMutability": "view",
      "type": "function"
    },
    {
      "inputs": [
        {
          "internalType": "address",
          "name": "",
          "type": "address"
        }
      ],
      "name": "_tokenContractAddressToResourceID",
      "outputs": [
        {
          "internalType": "bytes32",
          "name": "",
          "type": "bytes32"
        }
      ],
      "stateMutability": "view",
      "type": "function"
    },
    {
      "inputs": [],
      "name": "_wtokenAddress",
      "outputs": [
        {
          "internalType": "address",
          "name": "",
          "type": "address"
        }
      ],
      "stateMutability": "view",
      "type": "function"
    },
    {
      "inputs": [
        {
          "internalType": "address",
          "name": "tokenAddress",
          "type": "address"
        },
        {
          "internalType": "address",
          "name": "owner",
          "type": "address"
        },
        {
          "internalType": "uint256",
          "name": "amount",
          "type": "uint256"
        }
      ],
      "name": "fundERC20",
      "outputs": [],
      "stateMutability": "nonpayable",
      "type": "function"
    },
    {
      "inputs": [
        {
          "internalType": "address",
          "name": "contractAddress",
          "type": "address"
        }
      ],
      "name": "setBurnable",
      "outputs": [],
      "stateMutability": "nonpayable",
      "type": "function"
    },
    {
      "inputs": [
        {
          "internalType": "bytes32",
          "name": "resourceID",
          "type": "bytes32"
        },
        {
          "internalType": "address",
          "name": "contractAddress",
          "type": "address"
        }
      ],
      "name": "setResource",
      "outputs": [],
      "stateMutability": "nonpayable",
      "type": "function"
    },
    {
      "stateMutability": "payable",
      "type": "receive"
    },
    {
      "inputs": [
        {
          "internalType": "uint64",
          "name": "depositNonce",
          "type": "uint64"
        },
        {
          "internalType": "uint8",
          "name": "destId",
          "type": "uint8"
        }
      ],
      "name": "getDepositRecord",
      "outputs": [
        {
          "components": [
            {
              "internalType": "address",
              "name": "_tokenAddress",
              "type": "address"
            },
            {
              "internalType": "uint8",
              "name": "_lenDestinationRecipientAddress",
              "type": "uint8"
            },
            {
              "internalType": "uint8",
              "name": "_destinationChainID",
              "type": "uint8"
            },
            {
              "internalType": "bytes32",
              "name": "_resourceID",
              "type": "bytes32"
            },
            {
              "internalType": "bytes",
              "name": "_destinationRecipientAddress",
              "type": "bytes"
            },
            {
              "internalType": "address",
              "name": "_depositer",
              "type": "address"
            },
            {
              "internalType": "uint256",
              "name": "_amount",
              "type": "uint256"
            }
          ],
          "internalType": "struct ERC20Handler.DepositRecord",
          "name": "",
          "type": "tuple"
        }
      ],
      "stateMutability": "view",
      "type": "function"
    },
    {
      "inputs": [
        {
          "internalType": "bytes32",
          "name": "resourceID",
          "type": "bytes32"
        },
        {
          "internalType": "uint8",
          "name": "destinationChainID",
          "type": "uint8"
        },
        {
          "internalType": "uint64",
          "name": "depositNonce",
          "type": "uint64"
        },
        {
          "internalType": "address",
          "name": "depositer",
          "type": "address"
        },
        {
          "internalType": "bytes",
          "name": "data",
          "type": "bytes"
        }
      ],
      "name": "deposit",
      "outputs": [],
      "stateMutability": "nonpayable",
      "type": "function"
    },
    {
      "inputs": [
        {
          "internalType": "bytes32",
          "name": "resourceID",
          "type": "bytes32"
        },
        {
          "internalType": "bytes",
          "name": "data",
          "type": "bytes"
        }
      ],
      "name": "executeProposal",
      "outputs": [],
      "stateMutability": "nonpayable",
      "type": "function"
    },
    {
      "inputs": [
        {
          "internalType": "address",
          "name": "tokenAddress",
          "type": "address"
        },
        {
          "internalType": "address",
          "name": "recipient",
          "type": "address"
        },
        {
          "internalType": "uint256",
          "name": "amount",
          "type": "uint256"
        }
      ],
      "name": "withdraw",
      "outputs": [],
      "stateMutability": "nonpayable",
      "type": "function"
    },
    {
      "inputs": [
        {
          "internalType": "address",
          "name": "newBridgeAddress",
          "type": "address"
        }
      ],
      "name": "updateBridgeAddress",
      "outputs": [],
      "stateMutability": "nonpayable",
      "type": "function"
    }
  ],
  "bytecode": "0x60806040523480156200001157600080fd5b5060405162001967380380620019678339810160408190526200003491620002a4565b81518351146200007b576040517f08c379a0000000000000000000000000000000000000000000000000000000008152600401620000729062000415565b60405180910390fd5b600080546001600160a01b038088166001600160a01b031992831617835560018054918816919092161790555b8351811015620000f557620000ec848281518110620000c357fe5b6020026020010151848381518110620000d857fe5b60200260200101516200013d60201b60201c565b600101620000a8565b5060005b81518110156200013157620001288282815181106200011457fe5b60200260200101516200018d60201b60201c565b600101620000f9565b505050505050620004b9565b600082815260026020908152604080832080546001600160a01b039095166001600160a01b031990951685179055928252600381528282209390935560049092529020805460ff19166001179055565b6001600160a01b03811660009081526004602052604090205460ff16620001e2576040517f08c379a00000000000000000000000000000000000000000000000000000000081526004016200007290620003b8565b6001600160a01b03166000908152600560205260409020805460ff19166001179055565b80516001600160a01b03811681146200021e57600080fd5b92915050565b600082601f83011262000235578081fd5b81516200024c620002468262000499565b62000472565b8181529150602080830190848101818402860182018710156200026e57600080fd5b60005b84811015620002995762000286888362000206565b8452928201929082019060010162000271565b505050505092915050565b600080600080600060a08688031215620002bc578081fd5b620002c8878762000206565b94506020620002da8882890162000206565b60408801519095506001600160401b0380821115620002f7578384fd5b8189018a601f82011262000309578485fd5b805192506200031c620002468462000499565b83815284810190828601868602840187018e101562000339578788fd5b8793505b858410156200035d5780518352600193909301929186019186016200033d565b5060608c0151909850945050508083111562000377578384fd5b620003858a848b0162000224565b945060808901519250808311156200039b578384fd5b5050620003ab8882890162000224565b9150509295509295909350565b60208082526024908201527f70726f766964656420636f6e7472616374206973206e6f742077686974656c6960408201527f7374656400000000000000000000000000000000000000000000000000000000606082015260800190565b6020808252603c908201527f696e697469616c5265736f7572636549447320616e6420696e697469616c436f60408201527f6e7472616374416464726573736573206c656e206d69736d6174636800000000606082015260800190565b6040518181016001600160401b03811182821017156200049157600080fd5b604052919050565b60006001600160401b03821115620004af578081fd5b5060209081020190565b61149e80620004c96000396000f3fe6080604052600436106100ec5760003560e01c80636a70d0811161008a578063ba484c0911610059578063ba484c091461028c578063c8ba6c87146102b9578063d9caed12146102e6578063e248cff21461030657610107565b80636a70d081146101ff5780637f79bea81461022c57806395601f091461024c578063b8fa37361461026c57610107565b806338995da9116100c657806338995da9146101775780634402027f1461019757806353ec4105146101ca578063645c8a4b146101df57610107565b806307b7ed991461010c5780630a6d55d81461012c578063318c136e1461016257610107565b36610107576001546001600160a01b0316331461010557fe5b005b600080fd5b34801561011857600080fd5b50610105610127366004610efd565b610326565b34801561013857600080fd5b5061014c610147366004610f7f565b61033a565b604051610159919061114a565b60405180910390f35b34801561016e57600080fd5b5061014c610355565b34801561018357600080fd5b50610105610192366004611010565b610364565b3480156101a357600080fd5b506101b76101b23660046110c4565b61058f565b604051610159979695949392919061119b565b3480156101d657600080fd5b5061014c61067a565b3480156101eb57600080fd5b506101056101fa366004610efd565b610689565b34801561020b57600080fd5b5061021f61021a366004610efd565b6106e1565b60405161015991906111ea565b34801561023857600080fd5b5061021f610247366004610efd565b6106f6565b34801561025857600080fd5b50610105610267366004610f1f565b61070b565b34801561027857600080fd5b50610105610287366004610f97565b61071e565b34801561029857600080fd5b506102ac6102a7366004611090565b610734565b60405161015991906113b1565b3480156102c557600080fd5b506102d96102d4366004610efd565b61085c565b60405161015991906111f5565b3480156102f257600080fd5b50610105610301366004610f1f565b61086e565b34801561031257600080fd5b50610105610321366004610fc6565b61090d565b61032e610a55565b61033781610a81565b50565b6002602052600090815260409020546001600160a01b031681565b6000546001600160a01b031681565b61036c610a55565b606060008060c4359150604051925060e4359050808301602001604052600e360360e484376000898152600260209081526040808320546001600160a01b031680845260049092529091205460ff166103e05760405162461bcd60e51b81526004016103d790611369565b60405180910390fd5b6001546001600160a01b03828116911614610432576001600160a01b03811660009081526005602052604090205460ff161561042657610421818885610add565b610432565b61043281883086610b45565b6040518060e00160405280826001600160a01b031681526020018360ff1681526020018a60ff1681526020018b8152602001858152602001886001600160a01b0316815260200184815250600660008b60ff1660ff16815260200190815260200160002060008a67ffffffffffffffff1667ffffffffffffffff16815260200190815260200160002060008201518160000160006101000a8154816001600160a01b0302191690836001600160a01b0316021790555060208201518160000160146101000a81548160ff021916908360ff16021790555060408201518160000160156101000a81548160ff021916908360ff160217905550606082015181600101556080820151816002019080519060200190610550929190610da0565b5060a08201516003820180546001600160a01b0319166001600160a01b0390921691909117905560c09091015160049091015550505050505050505050565b600660209081526000928352604080842082529183529181902080546001808301546002808501805487516101009582161595909502600019011691909104601f81018890048802840188019096528583526001600160a01b03841696600160a01b850460ff90811697600160a81b909604169592949293929083018282801561065a5780601f1061062f5761010080835404028352916020019161065a565b820191906000526020600020905b81548152906001019060200180831161063d57829003601f168201915b50505050600383015460049093015491926001600160a01b031691905087565b6001546001600160a01b031681565b610691610a55565b6000546001600160a01b03828116911614156106bf5760405162461bcd60e51b81526004016103d7906112da565b600080546001600160a01b0319166001600160a01b0392909216919091179055565b60056020526000908152604090205460ff1681565b60046020526000908152604090205460ff1681565b8261071881843085610b59565b50505050565b610726610a55565b6107308282610bb1565b5050565b61073c610e1e565b60ff828116600090815260066020908152604080832067ffffffffffffffff88168452825291829020825160e08101845281546001600160a01b0381168252600160a01b8104861682850152600160a81b90049094168484015260018082015460608601526002808301805486516101009482161594909402600019011691909104601f81018590048502830185019095528482529193608086019391929183018282801561082c5780601f106108015761010080835404028352916020019161082c565b820191906000526020600020905b81548152906001019060200180831161080f57829003601f168201915b505050918352505060038201546001600160a01b0316602082015260049091015460409091015290505b92915050565b60036020526000908152604090205481565b610876610a55565b6001546001600160a01b03848116911614156108fd57600154604051632e1a7d4d60e01b81526001600160a01b0390911690632e1a7d4d906108bc9084906004016111f5565b600060405180830381600087803b1580156108d657600080fd5b505af11580156108ea573d6000803e3d6000fd5b505050506108f88282610c01565b610908565b610908838383610c8e565b505050565b610915610a55565b60408051608480358201602001909252606435913660831901908237600085815260026020908152604080832054848301516001600160a01b03909116808552600490935292205460ff1661097c5760405162461bcd60e51b81526004016103d790611369565b6001546001600160a01b0382811691161415610a0a57600154604051632e1a7d4d60e01b81526001600160a01b0390911690632e1a7d4d906109c29087906004016111f5565b600060405180830381600087803b1580156109dc57600080fd5b505af11580156109f0573d6000803e3d6000fd5b50505050610a018260601c85610c01565b50505050610908565b6001600160a01b03811660009081526005602052604090205460ff1615610a3e57610a39818360601c86610c9a565b610a4c565b610a4c818360601c86610c8e565b50505050505050565b6000546001600160a01b03163314610a7f5760405162461bcd60e51b81526004016103d790611233565b565b6001600160a01b03811660009081526004602052604090205460ff16610ab95760405162461bcd60e51b81526004016103d79061126a565b6001600160a01b03166000908152600560205260409020805460ff19166001179055565b60405163079cc67960e41b815283906001600160a01b038216906379cc679090610b0d9086908690600401611182565b600060405180830381600087803b158015610b2757600080fd5b505af1158015610b3b573d6000803e3d6000fd5b5050505050505050565b83610b5281858585610b59565b5050505050565b610718846323b872dd60e01b858585604051602401610b7a9392919061115e565b60408051601f198184030181529190526020810180516001600160e01b03166001600160e01b031990931692909217909152610cca565b600082815260026020908152604080832080546001600160a01b039095166001600160a01b031990951685179055928252600381528282209390935560049092529020805460ff19166001179055565b604080516000808252602082019092526001600160a01b038416908390604051610c2b919061112e565b60006040518083038185875af1925050503d8060008114610c68576040519150601f19603f3d011682016040523d82523d6000602084013e610c6d565b606091505b50509050806109085760405162461bcd60e51b81526004016103d790611326565b82610718818484610d81565b6040516340c10f1960e01b815283906001600160a01b038216906340c10f1990610b0d9086908690600401611182565b60006060836001600160a01b031683604051610ce6919061112e565b6000604051808303816000865af19150503d8060008114610d23576040519150601f19603f3d011682016040523d82523d6000602084013e610d28565b606091505b509150915081610d4a5760405162461bcd60e51b81526004016103d7906112ae565b8051156107185780806020019051810190610d659190610f5f565b6107185760405162461bcd60e51b81526004016103d7906111fe565b6109088363a9059cbb60e01b8484604051602401610b7a929190611182565b828054600181600116156101000203166002900490600052602060002090601f016020900481019282601f10610de157805160ff1916838001178555610e0e565b82800160010185558215610e0e579182015b82811115610e0e578251825591602001919060010190610df3565b50610e1a929150610e59565b5090565b6040805160e0810182526000808252602082018190529181018290526060808201839052608082015260a0810182905260c081019190915290565b610e7391905b80821115610e1a5760008155600101610e5f565b90565b80356001600160a01b038116811461085657600080fd5b60008083601f840112610e9e578182fd5b50813567ffffffffffffffff811115610eb5578182fd5b602083019150836020828501011115610ecd57600080fd5b9250929050565b803567ffffffffffffffff8116811461085657600080fd5b803560ff8116811461085657600080fd5b600060208284031215610f0e578081fd5b610f188383610e76565b9392505050565b600080600060608486031215610f33578182fd5b8335610f3e81611453565b92506020840135610f4e81611453565b929592945050506040919091013590565b600060208284031215610f70578081fd5b81518015158114610f18578182fd5b600060208284031215610f90578081fd5b5035919050565b60008060408385031215610fa9578182fd5b823591506020830135610fbb81611453565b809150509250929050565b600080600060408486031215610fda578283fd5b83359250602084013567ffffffffffffffff811115610ff7578283fd5b61100386828701610e8d565b9497909650939450505050565b60008060008060008060a08789031215611028578182fd5b863595506110398860208901610eec565b94506110488860408901610ed4565b93506110578860608901610e76565b9250608087013567ffffffffffffffff811115611072578283fd5b61107e89828a01610e8d565b979a9699509497509295939492505050565b600080604083850312156110a2578182fd5b6110ac8484610ed4565b91506110bb8460208501610eec565b90509250929050565b600080604083850312156110d6578182fd5b823560ff811681146110e6578283fd5b9150602083013567ffffffffffffffff81168114610fbb578182fd5b6000815180845261111a816020860160208601611427565b601f01601f19169290920160200192915050565b60008251611140818460208701611427565b9190910192915050565b6001600160a01b0391909116815260200190565b6001600160a01b039384168152919092166020820152604081019190915260600190565b6001600160a01b03929092168252602082015260400190565b600060018060a01b03808a16835260ff8916602084015260ff8816604084015286606084015260e060808401526111d560e0840187611102565b941660a08301525060c0015295945050505050565b901515815260200190565b90815260200190565b6020808252818101527f45524332303a206f7065726174696f6e20646964206e6f742073756363656564604082015260600190565b6020808252601e908201527f73656e646572206d7573742062652062726964676520636f6e74726163740000604082015260600190565b60208082526024908201527f70726f766964656420636f6e7472616374206973206e6f742077686974656c696040820152631cdd195960e21b606082015260800190565b602080825260129082015271115490cc8c0e8818d85b1b0819985a5b195960721b604082015260600190565b6020808252602c908201527f74686520757064617465642061646472657373206973207468652073616d652060408201526b1dda5d1a081d1a19481bdb1960a21b606082015260800190565b60208082526023908201527f5472616e7366657248656c7065723a204554485f5452414e534645525f46414960408201526213115160ea1b606082015260800190565b60208082526028908201527f70726f766964656420746f6b656e41646472657373206973206e6f74207768696040820152671d195b1a5cdd195960c21b606082015260800190565b60006020825260018060a01b0380845116602084015260ff602085015116604084015260ff604085015116606084015260608401516080840152608084015160e060a0850152611405610100850182611102565b8260a08701511660c086015260c086015160e086015280935050505092915050565b60005b8381101561144257818101518382015260200161142a565b838111156107185750506000910152565b6001600160a01b038116811461033757600080fdfea2646970667358221220edb5f2f4484cb5a091d8049cca7d24c782c37498efe76808107819146ad254ce64736f6c63430006040033",
  "source": "pragma solidity 0.6.4;\npragma experimental ABIEncoderV2;\n\nimport \"../interfaces/IDepositExecute.sol\";\nimport \"../interfaces/IWETH.sol\";\nimport \"./HandlerHelpers.sol\";\nimport \"../ERC20Safe.sol\";\nimport \"../TransferHelper.sol\";\nimport \"@openzeppelin/contracts/presets/ERC20PresetMinterPauser.sol\";\n\n/**\n    @title Handles ERC20 deposits and deposit executions.\n    @author ChainSafe Systems.\n    @notice This contract is intended to be used with the Bridge contract.\n */\ncontract ERC20Handler is IDepositExecute, HandlerHelpers, ERC20Safe {\n    struct DepositRecord {\n        address _tokenAddress;\n        uint8    _lenDestinationRecipientAddress;\n        uint8   _destinationChainID;\n        bytes32 _resourceID;\n        bytes   _destinationRecipientAddress;\n        address _depositer;\n        uint    _amount;\n    }\n\n    // depositNonce => Deposit Record\n    mapping (uint8 => mapping(uint64 => DepositRecord)) public _depositRecords;\n\n    /**\n        @param bridgeAddress Contract address of previously deployed Bridge.\n        @param initialResourceIDs Resource IDs are used to identify a specific contract address.\n        These are the Resource IDs this contract will initially support.\n        @param initialContractAddresses These are the addresses the {initialResourceIDs} will point to, and are the contracts that will be\n        called to perform various deposit calls.\n        @param burnableContractAddresses These addresses will be set as burnable and when {deposit} is called, the deposited token will be burned.\n        When {executeProposal} is called, new tokens will be minted.\n\n        @dev {initialResourceIDs} and {initialContractAddresses} must have the same length (one resourceID for every address).\n        Also, these arrays must be ordered in the way that {initialResourceIDs}[0] is the intended resourceID for {initialContractAddresses}[0].\n     */\n    constructor(\n        address          bridgeAddress,\n        address          wtokenAddress,\n        bytes32[] memory initialResourceIDs,\n        address[] memory initialContractAddresses,\n        address[] memory burnableContractAddresses\n    ) public {\n        require(initialResourceIDs.length == initialContractAddresses.length,\n            \"initialResourceIDs and initialContractAddresses len mismatch\");\n\n        _bridgeAddress = bridgeAddress;\n        _wtokenAddress = wtokenAddress;\n\n        for (uint256 i = 0; i < initialResourceIDs.length; i++) {\n            _setResource(initialResourceIDs[i], initialContractAddresses[i]);\n        }\n\n        for (uint256 i = 0; i < burnableContractAddresses.length; i++) {\n            _setBurnable(burnableContractAddresses[i]);\n        }\n    }\n\n    // fallback from the WETH\n    receive() external payable {\n        assert(msg.sender == _wtokenAddress); // only accept ETH via fallback from the WETH contract\n    }\n\n    /**\n        @param depositNonce This ID will have been generated by the Bridge contract.\n        @param destId ID of chain deposit will be bridged to.\n        @return DepositRecord which consists of:\n        - _tokenAddress Address used when {deposit} was executed.\n        - _destinationChainID ChainID deposited tokens are intended to end up on.\n        - _resourceID ResourceID used when {deposit} was executed.\n        - _lenDestinationRecipientAddress Used to parse recipient's address from {_destinationRecipientAddress}\n        - _destinationRecipientAddress Address tokens are intended to be deposited to on desitnation chain.\n        - _depositer Address that initially called {deposit} in the Bridge contract.\n        - _amount Amount of tokens that were deposited.\n    */\n    function getDepositRecord(uint64 depositNonce, uint8 destId) external view returns (DepositRecord memory) {\n        return _depositRecords[destId][depositNonce];\n    }\n\n    /**\n        @notice A deposit is initiatied by making a deposit in the Bridge contract.\n        @param destinationChainID Chain ID of chain tokens are expected to be bridged to.\n        @param depositNonce This value is generated as an ID by the Bridge contract.\n        @param depositer Address of account making the deposit in the Bridge contract.\n        @param data Consists of: {resourceID}, {amount}, {lenRecipientAddress}, and {recipientAddress}\n        all padded to 32 bytes.\n        @notice Data passed into the function should be constructed as follows:\n        amount                      uint256     bytes   0 - 32\n        recipientAddress length     uint256     bytes  32 - 64\n        recipientAddress            bytes       bytes  64 - END\n        @dev Depending if the corresponding {tokenAddress} for the parsed {resourceID} is\n        marked true in {_burnList}, deposited tokens will be burned, if not, they will be locked.\n     */\n    function deposit(\n        bytes32 resourceID,\n        uint8   destinationChainID,\n        uint64  depositNonce,\n        address depositer,\n        bytes   calldata data\n    ) external override onlyBridge {\n        bytes   memory recipientAddress;\n        uint256        amount;\n        uint256        lenRecipientAddress;\n\n        assembly {\n\n            amount := calldataload(0xC4)\n\n            recipientAddress := mload(0x40)\n            lenRecipientAddress := calldataload(0xE4)\n            mstore(0x40, add(0x20, add(recipientAddress, lenRecipientAddress)))\n\n            calldatacopy(\n                recipientAddress, // copy to destinationRecipientAddress\n                0xE4, // copy from calldata @ 0x104\n                sub(calldatasize(), 0xE) // copy size (calldatasize - 0x104)\n            )\n        }\n\n        address tokenAddress = _resourceIDToTokenContractAddress[resourceID];\n        require(_contractWhitelist[tokenAddress], \"provided tokenAddress is not whitelisted\");\n        \n        // ether case, the weth already in handler, do nothing\n        if (tokenAddress != _wtokenAddress) {\n            if (_burnList[tokenAddress]) {\n                burnERC20(tokenAddress, depositer, amount);\n            } else {\n                lockERC20(tokenAddress, depositer, address(this), amount);\n            }\n        }\n\n        _depositRecords[destinationChainID][depositNonce] = DepositRecord(\n            tokenAddress,\n            uint8(lenRecipientAddress),\n            destinationChainID,\n            resourceID,\n            recipientAddress,\n            depositer,\n            amount\n        );\n    }\n\n    /**\n        @notice Proposal execution should be initiated when a proposal is finalized in the Bridge contract.\n        by a relayer on the deposit's destination chain.\n        @param data Consists of {resourceID}, {amount}, {lenDestinationRecipientAddress},\n        and {destinationRecipientAddress} all padded to 32 bytes.\n        @notice Data passed into the function should be constructed as follows:\n        amount                                 uint256     bytes  0 - 32\n        destinationRecipientAddress length     uint256     bytes  32 - 64\n        destinationRecipientAddress            bytes       bytes  64 - END\n     */\n    function executeProposal(bytes32 resourceID, bytes calldata data) external override onlyBridge {\n        uint256       amount;\n        bytes  memory destinationRecipientAddress;\n\n        assembly {\n            amount := calldataload(0x64)\n\n            destinationRecipientAddress := mload(0x40)\n            let lenDestinationRecipientAddress := calldataload(0x84)\n            mstore(0x40, add(0x20, add(destinationRecipientAddress, lenDestinationRecipientAddress)))\n\n            // in the calldata the destinationRecipientAddress is stored at 0xC4 after accounting for the function signature and length declaration\n            calldatacopy(\n                destinationRecipientAddress, // copy to destinationRecipientAddress\n                0x84, // copy from calldata @ 0x84\n                sub(calldatasize(), 0x84) // copy size to the end of calldata\n            )\n        }\n\n        bytes20 recipientAddress;\n        address tokenAddress = _resourceIDToTokenContractAddress[resourceID];\n\n        assembly {\n            recipientAddress := mload(add(destinationRecipientAddress, 0x20))\n        }\n\n        require(_contractWhitelist[tokenAddress], \"provided tokenAddress is not whitelisted\");\n\n        // if it is wtoken, send native \n        if (tokenAddress == _wtokenAddress) {\n            IWETH(_wtokenAddress).withdraw(amount);\n            //payable(address(recipientAddress)).transfer(amount);\n            TransferHelper.safeTransferETH(address(recipientAddress), amount);\n            return;\n        }\n\n        if (_burnList[tokenAddress]) {\n            mintERC20(tokenAddress, address(recipientAddress), amount);\n        } else {\n            releaseERC20(tokenAddress, address(recipientAddress), amount);\n        }\n    }\n\n    /**\n        @notice Used to manually release ERC20 tokens from ERC20Safe.\n        @param tokenAddress Address of token contract to release.\n        @param recipient Address to release tokens to.\n        @param amount The amount of ERC20 tokens to release.\n     */\n    function withdraw(address tokenAddress, address recipient, uint amount) external override onlyBridge {\n        if (tokenAddress == _wtokenAddress) {\n            IWETH(_wtokenAddress).withdraw(amount);\n            //payable(address(recipient)).transfer(amount);\n            TransferHelper.safeTransferETH(recipient, amount);\n        } else {\n            releaseERC20(tokenAddress, recipient, amount);\n        }\n    }\n\n    /**\n        @notice Used to update the _bridgeAddress.\n        @param newBridgeAddress Address of the updated _bridgeAddress.\n     */\n    function updateBridgeAddress(address newBridgeAddress) external override onlyBridge {\n        require(_bridgeAddress != newBridgeAddress, \"the updated address is the same with the old\");\n\n        _bridgeAddress = newBridgeAddress;\n    }\n\n}\n",
  "sourcePath": "/home/yang/trees/bridge_deploy/cb-sol-cli/chainbridge-solidity/contracts/handlers/ERC20Handler.sol",
  "compiler": {
    "name": "solc",
    "version": "0.6.4+commit.1dca32f3.Emscripten.clang"
  },
  "schemaVersion": "3.1.0",
  "updatedAt": "2021-08-10T23:13:23.404Z",
  "devdoc": {
    "author": "ChainSafe Systems.",
    "methods": {
      "constructor": {
        "details": "{initialResourceIDs} and {initialContractAddresses} must have the same length (one resourceID for every address). Also, these arrays must be ordered in the way that {initialResourceIDs}[0] is the intended resourceID for {initialContractAddresses}[0].",
        "params": {
          "bridgeAddress": "Contract address of previously deployed Bridge.",
          "burnableContractAddresses": "These addresses will be set as burnable and when {deposit} is called, the deposited token will be burned. When {executeProposal} is called, new tokens will be minted.",
          "initialContractAddresses": "These are the addresses the {initialResourceIDs} will point to, and are the contracts that will be called to perform various deposit calls.",
          "initialResourceIDs": "Resource IDs are used to identify a specific contract address. These are the Resource IDs this contract will initially support."
        }
      },
      "deposit(bytes32,uint8,uint64,address,bytes)": {
        "details": "Depending if the corresponding {tokenAddress} for the parsed {resourceID} is marked true in {_burnList}, deposited tokens will be burned, if not, they will be locked.",
        "params": {
          "data": "Consists of: {resourceID}, {amount}, {lenRecipientAddress}, and {recipientAddress} all padded to 32 bytes.",
          "depositNonce": "This value is generated as an ID by the Bridge contract.",
          "depositer": "Address of account making the deposit in the Bridge contract.",
          "destinationChainID": "Chain ID of chain tokens are expected to be bridged to."
        }
      },
      "executeProposal(bytes32,bytes)": {
        "params": {
          "data": "Consists of {resourceID}, {amount}, {lenDestinationRecipientAddress}, and {destinationRecipientAddress} all padded to 32 bytes."
        }
      },
      "fundERC20(address,address,uint256)": {
        "params": {
          "amount": "Amount of tokens to transfer.",
          "owner": "Address of current token owner.",
          "tokenAddress": "Address of ERC20 to transfer."
        }
      },
      "getDepositRecord(uint64,uint8)": {
        "params": {
          "depositNonce": "This ID will have been generated by the Bridge contract.",
          "destId": "ID of chain deposit will be bridged to."
        },
        "returns": {
          "_0": "DepositRecord which consists of: - _tokenAddress Address used when {deposit} was executed. - _destinationChainID ChainID deposited tokens are intended to end up on. - _resourceID ResourceID used when {deposit} was executed. - _lenDestinationRecipientAddress Used to parse recipient's address from {_destinationRecipientAddress} - _destinationRecipientAddress Address tokens are intended to be deposited to on desitnation chain. - _depositer Address that initially called {deposit} in the Bridge contract. - _amount Amount of tokens that were deposited."
        }
      },
      "setBurnable(address)": {
        "params": {
          "contractAddress": "Address of contract to be used when making or executing deposits."
        }
      },
      "setResource(bytes32,address)": {
        "params": {
          "contractAddress": "Address of contract to be called when a deposit is made and a deposited is executed.",
          "resourceID": "ResourceID to be used when making deposits."
        }
      },
      "updateBridgeAddress(address)": {
        "params": {
          "newBridgeAddress": "Address of the updated _bridgeAddress."
        }
      },
      "withdraw(address,address,uint256)": {
        "params": {
          "amount": "The amount of ERC20 tokens to release.",
          "recipient": "Address to release tokens to.",
          "tokenAddress": "Address of token contract to release."
        }
      }
    },
    "title": "Handles ERC20 deposits and deposit executions."
  },
  "userdoc": {
    "methods": {
      "deposit(bytes32,uint8,uint64,address,bytes)": {
        "notice": "A deposit is initiatied by making a deposit in the Bridge contract.Data passed into the function should be constructed as follows: amount                      uint256     bytes   0 - 32 recipientAddress length     uint256     bytes  32 - 64 recipientAddress            bytes       bytes  64 - END"
      },
      "executeProposal(bytes32,bytes)": {
        "notice": "Proposal execution should be initiated when a proposal is finalized in the Bridge contract. by a relayer on the deposit's destination chain.Data passed into the function should be constructed as follows: amount                                 uint256     bytes  0 - 32 destinationRecipientAddress length     uint256     bytes  32 - 64 destinationRecipientAddress            bytes       bytes  64 - END"
      },
      "fundERC20(address,address,uint256)": {
        "notice": "Used to transfer tokens into the safe to fund proposals."
      },
      "setBurnable(address)": {
        "notice": "First verifies {contractAddress} is whitelisted, then sets {_burnList}[{contractAddress}] to true."
      },
      "setResource(bytes32,address)": {
        "notice": "First verifies {_resourceIDToContractAddress}[{resourceID}] and {_contractAddressToResourceID}[{contractAddress}] are not already set, then sets {_resourceIDToContractAddress} with {contractAddress}, {_contractAddressToResourceID} with {resourceID}, and {_contractWhitelist} to true for {contractAddress}."
      },
      "updateBridgeAddress(address)": {
        "notice": "Used to update the _bridgeAddress."
      },
      "withdraw(address,address,uint256)": {
        "notice": "Used to manually release ERC20 tokens from ERC20Safe."
      }
    },
    "notice": "This contract is intended to be used with the Bridge contract."
  }
}